{
  "_format": "hh-sol-artifact-1",
  "contractName": "BattleShipNFT",
  "sourceName": "contracts/BattleShipNFT.sol",
  "abi": [
    {
      "anonymous": false,
      "inputs": [
        {
          "indexed": true,
          "internalType": "address",
          "name": "_owner",
          "type": "address"
        },
        {
          "indexed": true,
          "internalType": "address",
          "name": "_approved",
          "type": "address"
        },
        {
          "indexed": true,
          "internalType": "uint256",
          "name": "_tokenId",
          "type": "uint256"
        }
      ],
      "name": "Approval",
      "type": "event"
    },
    {
      "anonymous": false,
      "inputs": [
        {
          "indexed": true,
          "internalType": "address",
          "name": "_owner",
          "type": "address"
        },
        {
          "indexed": true,
          "internalType": "address",
          "name": "_operator",
          "type": "address"
        },
        {
          "indexed": false,
          "internalType": "bool",
          "name": "_approved",
          "type": "bool"
        }
      ],
      "name": "ApprovalForAll",
      "type": "event"
    },
    {
      "anonymous": false,
      "inputs": [
        {
          "indexed": false,
          "internalType": "uint256",
          "name": "shipId",
          "type": "uint256"
        }
      ],
      "name": "NewBattleShip",
      "type": "event"
    },
    {
      "anonymous": false,
      "inputs": [
        {
          "indexed": true,
          "internalType": "address",
          "name": "previousOwner",
          "type": "address"
        },
        {
          "indexed": true,
          "internalType": "address",
          "name": "newOwner",
          "type": "address"
        }
      ],
      "name": "OwnershipTransferred",
      "type": "event"
    },
    {
      "anonymous": false,
      "inputs": [
        {
          "indexed": true,
          "internalType": "address",
          "name": "_from",
          "type": "address"
        },
        {
          "indexed": true,
          "internalType": "address",
          "name": "_to",
          "type": "address"
        },
        {
          "indexed": true,
          "internalType": "uint256",
          "name": "_tokenId",
          "type": "uint256"
        }
      ],
      "name": "Transfer",
      "type": "event"
    },
    {
      "inputs": [
        {
          "internalType": "address",
          "name": "_approved",
          "type": "address"
        },
        {
          "internalType": "uint256",
          "name": "_tokenId",
          "type": "uint256"
        }
      ],
      "name": "approve",
      "outputs": [],
      "stateMutability": "payable",
      "type": "function"
    },
    {
      "inputs": [
        {
          "internalType": "address",
          "name": "_owner",
          "type": "address"
        }
      ],
      "name": "balanceOf",
      "outputs": [
        {
          "internalType": "uint256",
          "name": "",
          "type": "uint256"
        }
      ],
      "stateMutability": "view",
      "type": "function"
    },
    {
      "inputs": [
        {
          "internalType": "uint256",
          "name": "",
          "type": "uint256"
        }
      ],
      "name": "battleShips",
      "outputs": [
        {
          "internalType": "uint256",
          "name": "id",
          "type": "uint256"
        },
        {
          "internalType": "uint256",
          "name": "shipType",
          "type": "uint256"
        },
        {
          "internalType": "uint256",
          "name": "exp",
          "type": "uint256"
        },
        {
          "internalType": "uint32",
          "name": "level",
          "type": "uint32"
        },
        {
          "internalType": "uint256",
          "name": "health",
          "type": "uint256"
        },
        {
          "internalType": "uint256",
          "name": "damage",
          "type": "uint256"
        }
      ],
      "stateMutability": "view",
      "type": "function"
    },
    {
      "inputs": [
        {
          "internalType": "address",
          "name": "tokenAddress",
          "type": "address"
        }
      ],
      "name": "createRandomBattleShip",
      "outputs": [],
      "stateMutability": "nonpayable",
      "type": "function"
    },
    {
      "inputs": [
        {
          "internalType": "uint256",
          "name": "_tokenId",
          "type": "uint256"
        }
      ],
      "name": "getApproved",
      "outputs": [
        {
          "internalType": "address",
          "name": "",
          "type": "address"
        }
      ],
      "stateMutability": "view",
      "type": "function"
    },
    {
      "inputs": [
        {
          "internalType": "address",
          "name": "_owner",
          "type": "address"
        }
      ],
      "name": "getShipsByOwner",
      "outputs": [
        {
          "internalType": "uint256[]",
          "name": "",
          "type": "uint256[]"
        }
      ],
      "stateMutability": "view",
      "type": "function"
    },
    {
      "inputs": [],
      "name": "isOwner",
      "outputs": [
        {
          "internalType": "bool",
          "name": "",
          "type": "bool"
        }
      ],
      "stateMutability": "view",
      "type": "function"
    },
    {
      "inputs": [],
      "name": "owner",
      "outputs": [
        {
          "internalType": "address",
          "name": "",
          "type": "address"
        }
      ],
      "stateMutability": "view",
      "type": "function"
    },
    {
      "inputs": [
        {
          "internalType": "uint256",
          "name": "_tokenId",
          "type": "uint256"
        }
      ],
      "name": "ownerOf",
      "outputs": [
        {
          "internalType": "address",
          "name": "",
          "type": "address"
        }
      ],
      "stateMutability": "view",
      "type": "function"
    },
    {
      "inputs": [],
      "name": "renounceOwnership",
      "outputs": [],
      "stateMutability": "nonpayable",
      "type": "function"
    },
    {
      "inputs": [
        {
          "internalType": "uint256",
          "name": "_fee",
          "type": "uint256"
        }
      ],
      "name": "setLevelUpFee",
      "outputs": [],
      "stateMutability": "nonpayable",
      "type": "function"
    },
    {
      "inputs": [
        {
          "internalType": "uint256",
          "name": "_shipId",
          "type": "uint256"
        }
      ],
      "name": "shipLevelUp",
      "outputs": [],
      "stateMutability": "payable",
      "type": "function"
    },
    {
      "inputs": [
        {
          "internalType": "uint256",
          "name": "_shipId",
          "type": "uint256"
        }
      ],
      "name": "shipURI",
      "outputs": [
        {
          "internalType": "string",
          "name": "",
          "type": "string"
        }
      ],
      "stateMutability": "view",
      "type": "function"
    },
    {
      "inputs": [
        {
          "internalType": "address",
          "name": "_from",
          "type": "address"
        },
        {
          "internalType": "address",
          "name": "_to",
          "type": "address"
        },
        {
          "internalType": "uint256",
          "name": "_tokenId",
          "type": "uint256"
        }
      ],
      "name": "transferFrom",
      "outputs": [],
      "stateMutability": "payable",
      "type": "function"
    },
    {
      "inputs": [
        {
          "internalType": "address",
          "name": "newOwner",
          "type": "address"
        }
      ],
      "name": "transferOwnership",
      "outputs": [],
      "stateMutability": "nonpayable",
      "type": "function"
    },
    {
      "inputs": [],
      "name": "withdraw",
      "outputs": [],
      "stateMutability": "nonpayable",
      "type": "function"
    }
  ],
  "bytecode": "0x6080604052601e600260006101000a81548161ffff021916908361ffff1602179055506509184e72a00060055534801561003857600080fd5b50336000806101000a81548173ffffffffffffffffffffffffffffffffffffffff021916908373ffffffffffffffffffffffffffffffffffffffff16021790555060008054906101000a900473ffffffffffffffffffffffffffffffffffffffff1673ffffffffffffffffffffffffffffffffffffffff16600073ffffffffffffffffffffffffffffffffffffffff167f8be0079c531659141344cd1fd0a4f28419497f9722a3daafe3b4186f6b6457e060405160405180910390a3611c47806101036000396000f3fe6080604052600436106100f35760003560e01c80638da5cb5b1161008a578063cacc9e0b11610059578063cacc9e0b1461030e578063ccf670f814610350578063ce8a2f3d14610379578063f2fde38b14610395576100f3565b80638da5cb5b1461023e5780638f32d59b14610269578063a1fc85de14610294578063a8e23a36146102d1576100f3565b80633ccfd60b116100c65780633ccfd60b146101965780636352211e146101ad57806370a08231146101ea578063715018a614610227576100f3565b806306fb6326146100f8578063081812fc14610121578063095ea7b31461015e57806323b872dd1461017a575b600080fd5b34801561010457600080fd5b5061011f600480360381019061011a9190611480565b6103be565b005b34801561012d57600080fd5b5061014860048036038101906101439190611534565b61076e565b604051610155919061175f565b60405180910390f35b610178600480360381019061017391906114f8565b6107ab565b005b610194600480360381019061018f91906114a9565b61085c565b005b3480156101a257600080fd5b506101ab610940565b005b3480156101b957600080fd5b506101d460048036038101906101cf9190611534565b6109a7565b6040516101e1919061175f565b60405180910390f35b3480156101f657600080fd5b50610211600480360381019061020c9190611480565b6109e4565b60405161021e9190611822565b60405180910390f35b34801561023357600080fd5b5061023c610a2d565b005b34801561024a57600080fd5b50610253610afc565b604051610260919061175f565b60405180910390f35b34801561027557600080fd5b5061027e610b25565b60405161028b91906117c5565b60405180910390f35b3480156102a057600080fd5b506102bb60048036038101906102b69190611534565b610b7c565b6040516102c891906117e0565b60405180910390f35b3480156102dd57600080fd5b506102f860048036038101906102f39190611480565b610c6b565b60405161030591906117a3565b60405180910390f35b34801561031a57600080fd5b5061033560048036038101906103309190611534565b610e0a565b6040516103479695949392919061183d565b60405180910390f35b34801561035c57600080fd5b5061037760048036038101906103729190611534565b610e66565b005b610393600480360381019061038e9190611534565b610e81565b005b3480156103a157600080fd5b506103bc60048036038101906103b79190611480565b610f6f565b005b600260009054906101000a900461ffff1661ffff168173ffffffffffffffffffffffffffffffffffffffff166370a08231336040518263ffffffff1660e01b815260040161040c919061175f565b60206040518083038186803b15801561042457600080fd5b505afa158015610438573d6000803e3d6000fd5b505050506040513d601f19601f8201168201806040525081019061045c919061155d565b1161049c576040517f08c379a000000000000000000000000000000000000000000000000000000000815260040161049390611802565b60405180910390fd5b60006104a6610f8c565b905060006104e96040518060400160405280600381526020017f646d67000000000000000000000000000000000000000000000000000000000081525083611004565b905060006003826104fa919061198e565b6105396040518060400160405280600281526020017f687000000000000000000000000000000000000000000000000000000000000081525085611004565b61054391906118fe565b9050600060018054905090506001600460003373ffffffffffffffffffffffffffffffffffffffff1673ffffffffffffffffffffffffffffffffffffffff168152602001908152602001600020600082825461059f91906118fe565b92505081905550336003600083815260200190815260200160002060006101000a81548173ffffffffffffffffffffffffffffffffffffffff021916908373ffffffffffffffffffffffffffffffffffffffff16021790555060016040518060c0016040528083815260200186815260200160008152602001600163ffffffff16815260200184815260200185815250908060018154018082558091505060019003906000526020600020906006020160009091909190915060008201518160000155602082015181600101556040820151816002015560608201518160030160006101000a81548163ffffffff021916908363ffffffff1602179055506080820151816004015560a0820151816005015550508473ffffffffffffffffffffffffffffffffffffffff16639dc29fac33600260009054906101000a900461ffff166040518363ffffffff1660e01b81526004016106fe92919061177a565b600060405180830381600087803b15801561071857600080fd5b505af115801561072c573d6000803e3d6000fd5b505050507f489c3e474816917eca955f4c7664a3bdb292d84aa72bb5246c73dfb300e795ae8160405161075f9190611822565b60405180910390a15050505050565b60006006600083815260200190815260200160002060009054906101000a900473ffffffffffffffffffffffffffffffffffffffff169050919050565b816006600083815260200190815260200160002060006101000a81548173ffffffffffffffffffffffffffffffffffffffff021916908373ffffffffffffffffffffffffffffffffffffffff160217905550808273ffffffffffffffffffffffffffffffffffffffff163373ffffffffffffffffffffffffffffffffffffffff167f8c5be1e5ebec7d5bd14f71427d1e84f3dd0314c0f7b2291e5b200ac8c7c3b92560405160405180910390a45050565b3373ffffffffffffffffffffffffffffffffffffffff166003600083815260200190815260200160002060009054906101000a900473ffffffffffffffffffffffffffffffffffffffff1673ffffffffffffffffffffffffffffffffffffffff16148061092757503373ffffffffffffffffffffffffffffffffffffffff166006600083815260200190815260200160002060009054906101000a900473ffffffffffffffffffffffffffffffffffffffff1673ffffffffffffffffffffffffffffffffffffffff16145b61093057600080fd5b61093b83838361106f565b505050565b610948610b25565b61095157600080fd5b600061095b610afc565b90508073ffffffffffffffffffffffffffffffffffffffff166108fc479081150290604051600060405180830381858888f193505050501580156109a3573d6000803e3d6000fd5b5050565b60006003600083815260200190815260200160002060009054906101000a900473ffffffffffffffffffffffffffffffffffffffff169050919050565b6000600460008373ffffffffffffffffffffffffffffffffffffffff1673ffffffffffffffffffffffffffffffffffffffff168152602001908152602001600020549050919050565b610a35610b25565b610a3e57600080fd5b600073ffffffffffffffffffffffffffffffffffffffff1660008054906101000a900473ffffffffffffffffffffffffffffffffffffffff1673ffffffffffffffffffffffffffffffffffffffff167f8be0079c531659141344cd1fd0a4f28419497f9722a3daafe3b4186f6b6457e060405160405180910390a360008060006101000a81548173ffffffffffffffffffffffffffffffffffffffff021916908373ffffffffffffffffffffffffffffffffffffffff160217905550565b60008060009054906101000a900473ffffffffffffffffffffffffffffffffffffffff16905090565b60008060009054906101000a900473ffffffffffffffffffffffffffffffffffffffff1673ffffffffffffffffffffffffffffffffffffffff163373ffffffffffffffffffffffffffffffffffffffff1614905090565b60606001808381548110610bb9577f4e487b7100000000000000000000000000000000000000000000000000000000600052603260045260246000fd5b9060005260206000209060060201600101541415610be857604051806020016040528060008152509050610c66565b600260018381548110610c24577f4e487b7100000000000000000000000000000000000000000000000000000000600052603260045260246000fd5b9060005260206000209060060201600101541415610c5357604051806020016040528060008152509050610c66565b6040518060200160405280600081525090505b919050565b60606000600460008473ffffffffffffffffffffffffffffffffffffffff1673ffffffffffffffffffffffffffffffffffffffff1681526020019081526020016000205467ffffffffffffffff811115610cee577f4e487b7100000000000000000000000000000000000000000000000000000000600052604160045260246000fd5b604051908082528060200260200182016040528015610d1c5781602001602082028036833780820191505090505b5090506000805b600180549050811015610dff578473ffffffffffffffffffffffffffffffffffffffff166003600083815260200190815260200160002060009054906101000a900473ffffffffffffffffffffffffffffffffffffffff1673ffffffffffffffffffffffffffffffffffffffff161415610dec5780838381518110610dd1577f4e487b7100000000000000000000000000000000000000000000000000000000600052603260045260246000fd5b6020026020010181815250508180610de890611ac7565b9250505b8080610df790611ac7565b915050610d23565b508192505050919050565b60018181548110610e1a57600080fd5b90600052602060002090600602016000915090508060000154908060010154908060020154908060030160009054906101000a900463ffffffff16908060040154908060050154905086565b610e6e610b25565b610e7757600080fd5b8060058190555050565b6005543414610e8f57600080fd5b610f036001808381548110610ecd577f4e487b7100000000000000000000000000000000000000000000000000000000600052603260045260246000fd5b906000526020600020906006020160030160009054906101000a900463ffffffff1663ffffffff1661124d90919063ffffffff16565b60018281548110610f3d577f4e487b7100000000000000000000000000000000000000000000000000000000600052603260045260246000fd5b906000526020600020906006020160030160006101000a81548163ffffffff021916908363ffffffff16021790555050565b610f77610b25565b610f8057600080fd5b610f89816112ab565b50565b6000804442604051602001610fa29291906116fa565b6040516020818303038152906040528051906020012060001c9050603c606482610fcc9190611b1a565b1015610fdc576001915050611001565b605a606482610feb9190611b1a565b1015610ffb576002915050611001565b60039150505b90565b60008044428560405160200161101c93929190611726565b6040516020818303038152906040528051906020012060001c905082600a611044919061198e565b83600a836110529190611b1a565b61105c919061198e565b61106691906118fe565b91505092915050565b816003600083815260200190815260200160002060006101000a81548173ffffffffffffffffffffffffffffffffffffffff021916908373ffffffffffffffffffffffffffffffffffffffff1602179055506111146001600460008573ffffffffffffffffffffffffffffffffffffffff1673ffffffffffffffffffffffffffffffffffffffff168152602001908152602001600020546113a290919063ffffffff16565b600460008473ffffffffffffffffffffffffffffffffffffffff1673ffffffffffffffffffffffffffffffffffffffff168152602001908152602001600020819055506111aa6001600460008673ffffffffffffffffffffffffffffffffffffffff1673ffffffffffffffffffffffffffffffffffffffff168152602001908152602001600020546113f490919063ffffffff16565b600460008573ffffffffffffffffffffffffffffffffffffffff1673ffffffffffffffffffffffffffffffffffffffff16815260200190815260200160002081905550808273ffffffffffffffffffffffffffffffffffffffff168473ffffffffffffffffffffffffffffffffffffffff167fddf252ad1be2c89b69c2b068fc378daa952ba7f163c4a11628f55a4df523b3ef60405160405180910390a4505050565b600080828461125c9190611954565b90508363ffffffff168163ffffffff1610156112a1577f4e487b7100000000000000000000000000000000000000000000000000000000600052600160045260246000fd5b8091505092915050565b600073ffffffffffffffffffffffffffffffffffffffff168173ffffffffffffffffffffffffffffffffffffffff1614156112e557600080fd5b8073ffffffffffffffffffffffffffffffffffffffff1660008054906101000a900473ffffffffffffffffffffffffffffffffffffffff1673ffffffffffffffffffffffffffffffffffffffff167f8be0079c531659141344cd1fd0a4f28419497f9722a3daafe3b4186f6b6457e060405160405180910390a3806000806101000a81548173ffffffffffffffffffffffffffffffffffffffff021916908373ffffffffffffffffffffffffffffffffffffffff16021790555050565b60008082846113b191906118fe565b9050838110156113ea577f4e487b7100000000000000000000000000000000000000000000000000000000600052600160045260246000fd5b8091505092915050565b60008282111561142d577f4e487b7100000000000000000000000000000000000000000000000000000000600052600160045260246000fd5b818361143991906119e8565b905092915050565b60008135905061145081611be3565b92915050565b60008135905061146581611bfa565b92915050565b60008151905061147a81611bfa565b92915050565b60006020828403121561149257600080fd5b60006114a084828501611441565b91505092915050565b6000806000606084860312156114be57600080fd5b60006114cc86828701611441565b93505060206114dd86828701611441565b92505060406114ee86828701611456565b9150509250925092565b6000806040838503121561150b57600080fd5b600061151985828601611441565b925050602061152a85828601611456565b9150509250929050565b60006020828403121561154657600080fd5b600061155484828501611456565b91505092915050565b60006020828403121561156f57600080fd5b600061157d8482850161146b565b91505092915050565b600061159283836116b6565b60208301905092915050565b6115a781611a1c565b82525050565b60006115b8826118ae565b6115c281856118d1565b93506115cd8361189e565b8060005b838110156115fe5781516115e58882611586565b97506115f0836118c4565b9250506001810190506115d1565b5085935050505092915050565b61161481611a2e565b82525050565b6000611625826118b9565b61162f81856118e2565b935061163f818560208601611a94565b61164881611ba9565b840191505092915050565b600061165e826118b9565b61166881856118f3565b9350611678818560208601611a94565b80840191505092915050565b60006116916015836118e2565b915061169c82611bba565b602082019050919050565b6116b081611a82565b82525050565b6116bf81611a68565b82525050565b6116ce81611a68565b82525050565b6116e56116e082611a68565b611b10565b82525050565b6116f481611a72565b82525050565b600061170682856116d4565b60208201915061171682846116d4565b6020820191508190509392505050565b600061173282866116d4565b60208201915061174282856116d4565b6020820191506117528284611653565b9150819050949350505050565b6000602082019050611774600083018461159e565b92915050565b600060408201905061178f600083018561159e565b61179c60208301846116a7565b9392505050565b600060208201905081810360008301526117bd81846115ad565b905092915050565b60006020820190506117da600083018461160b565b92915050565b600060208201905081810360008301526117fa818461161a565b905092915050565b6000602082019050818103600083015261181b81611684565b9050919050565b600060208201905061183760008301846116c5565b92915050565b600060c08201905061185260008301896116c5565b61185f60208301886116c5565b61186c60408301876116c5565b61187960608301866116eb565b61188660808301856116c5565b61189360a08301846116c5565b979650505050505050565b6000819050602082019050919050565b600081519050919050565b600081519050919050565b6000602082019050919050565b600082825260208201905092915050565b600082825260208201905092915050565b600081905092915050565b600061190982611a68565b915061191483611a68565b9250827fffffffffffffffffffffffffffffffffffffffffffffffffffffffffffffffff0382111561194957611948611b4b565b5b828201905092915050565b600061195f82611a72565b915061196a83611a72565b92508263ffffffff0382111561198357611982611b4b565b5b828201905092915050565b600061199982611a68565b91506119a483611a68565b9250817fffffffffffffffffffffffffffffffffffffffffffffffffffffffffffffffff04831182151516156119dd576119dc611b4b565b5b828202905092915050565b60006119f382611a68565b91506119fe83611a68565b925082821015611a1157611a10611b4b565b5b828203905092915050565b6000611a2782611a48565b9050919050565b60008115159050919050565b600061ffff82169050919050565b600073ffffffffffffffffffffffffffffffffffffffff82169050919050565b6000819050919050565b600063ffffffff82169050919050565b6000611a8d82611a3a565b9050919050565b60005b83811015611ab2578082015181840152602081019050611a97565b83811115611ac1576000848401525b50505050565b6000611ad282611a68565b91507fffffffffffffffffffffffffffffffffffffffffffffffffffffffffffffffff821415611b0557611b04611b4b565b5b600182019050919050565b6000819050919050565b6000611b2582611a68565b9150611b3083611a68565b925082611b4057611b3f611b7a565b5b828206905092915050565b7f4e487b7100000000000000000000000000000000000000000000000000000000600052601160045260246000fd5b7f4e487b7100000000000000000000000000000000000000000000000000000000600052601260045260246000fd5b6000601f19601f8301169050919050565b7f496e73756666696369656e742062616c616e6365210000000000000000000000600082015250565b611bec81611a1c565b8114611bf757600080fd5b50565b611c0381611a68565b8114611c0e57600080fd5b5056fea2646970667358221220f3911dea96e94b7013396c434eef779e48e1bf2b3a7417ca1b0475927eed4dca64736f6c63430008040033",
  "linkReferences": {},
  "deployedLinkReferences": {}
}